:020000040800F2
:1000000000000120193B00087D0700087F07000859
:10001000810700088307000885070008000000002A
:10002000000000000000000000000000870700083A
:1000300089070008000000008B0700088D070008F2
:10004000693B0008693B0008693B0008693B000800
:10005000693B0008693B0008693B0008693B0008F0
:10006000693B0008693B0008693B0008693B0008E0
:10007000693B0008693B0008693B0008693B0008D0
:10008000693B0008693B0008693B0008000000006C
:10009000000000000000000000000000693B0008B4
:1000A000693B0008693B0008693B0008693B0008A0
:1000B000693B0008693B0008693B0008693B000890
:1000C000693B0008693B0008693B0008693B000880
:1000D000693B0008693B0008693B0008000000001C
:1000E000693B0008693B0008693B0008000000000C
:1000F000000000000000000000000000693B000854
:1001000000000000693B0008693B0008693B0008EB
:1001100000000000000000000000000000000000DF
:10012000693B0008693B0008693B0008693B00081F
:10013000693B000800000000000000000000000013
:10014000000000000000000000000000950700080B
:10015000693B0008693B0008693B0008693B0008EF
:10016000693B0008693B0008000000000000000037
:10017000000000000000000000000000000000007F
:1001800000000000693B00080000000000000000C3
:04019000693B0008BF
:1001A00010B5054C237833B9044B13B10448AFF3B1
:1001B00000800123237010BDF80100200000000022
:1001C000BC44000808B5034B1BB103490348AFF317
:1001D000008008BD00000000FC010020BC440008B5
:1001E000034613F8012B002AFBD1181A0138704777
:1001F00001F0FF01102A2BDB10F0070F08D010F8D8
:10020000013B013A8B422DD010F0070F42B3F6D1DB
:10021000F0B441EA012141EA014122F007047FF0F4
:1002200000070023F0E80256083C85EA010586EA4B
:10023000010685FA47F5A3FA87F586FA47F6A5FA87
:1002400087F68EB9EED1F0BC01F0FF0102F0070293
:1002500032B110F8013B013A83EA010313B1F8D13E
:100260000020704701387047002D06BF354603381F
:10027000073815F0010F07D1013015F4807F02BF58
:10028000013015F4C03F0130F0BC0138704700BFA9
:1002900053B94AB9002908BF00281CBF4FF0FF31ED
:1002A0004FF0FF3000F074B9ADF1080C6DE904CEE9
:1002B00000F006F8DDF804E0DDE9022304B0704741
:1002C0002DE9F047089D04468E46002B4DD18A4209
:1002D000944669D9B2FA82F252B101FA02F3C2F13C
:1002E000200120FA01F10CFA02FC41EA030E9440CD
:1002F0004FEA1C48210CBEFBF8F61FFA8CF708FBEE
:1003000016E341EA034306FB07F199420AD91CEBC5
:10031000030306F1FF3080F01F81994240F21C81F7
:10032000023E63445B1AA4B2B3FBF8F008FB10333F
:1003300044EA034400FB07F7A7420AD91CEB040474
:1003400000F1FF3380F00A81A74240F20781644444
:10035000023840EA0640E41B00261DB1D4400023C9
:10036000C5E900433146BDE8F0878B4209D9002D2D
:1003700000F0EF800026C5E9000130463146BDE8B7
:10038000F087B3FA83F6002E4AD18B4202D3824221
:1003900000F2F980841A61EB030301209E46002DD0
:1003A000E0D0C5E9004EDDE702B9FFDEB2FA82F225
:1003B000002A40F09280A1EB0C014FEA1C471FFA83
:1003C0008CFE0126200CB1FBF7F307FB131140EA6A
:1003D00001410EFB03F0884208D91CEB010103F137
:1003E000FF3802D2884200F2CB804346091AA4B2F9
:1003F000B1FBF7F007FB101144EA01440EFB00FECD
:10040000A64508D91CEB040400F1FF3102D2A64531
:1004100000F2BB800846A4EB0E0440EA03409CE7D0
:10042000C6F12007B34022FA07FC4CEA030C20FA7D
:1004300007F401FA06F31C43F9404FEA1C4900FA9D
:1004400006F3B1FBF9F8200C1FFA8CFE09FB18111A
:1004500040EA014108FB0EF0884202FA06F20BD98D
:100460001CEB010108F1FF3A80F08880884240F2DD
:100470008580A8F102086144091AA4B2B1FBF9F021
:1004800009FB101144EA014100FB0EFE8E4508D91C
:100490001CEB010100F1FF346CD28E456AD90238A1
:1004A000614440EA0840A0FB0294A1EB0E01A14286
:1004B000C846A64656D353D05DB1B3EB080261EBF4
:1004C0000E0101FA07F722FA06F3F1401F43C5E9CE
:1004D000007100263146BDE8F087C2F12003D84004
:1004E0000CFA02FC21FA03F3914001434FEA1C4746
:1004F0001FFA8CFEB3FBF7F007FB10360B0C43EA38
:10050000064300FB0EF69E4204FA02F408D91CEBE7
:10051000030300F1FF382FD29E422DD902386344E5
:100520009B1B89B2B3FBF7F607FB163341EA034185
:1005300006FB0EF38B4208D91CEB010106F1FF38D4
:1005400016D28B4214D9023E6144C91A46EA0046CB
:1005500038E72E46284605E70646E3E61846F8E65D
:100560004B45A9D2B9EB020864EB0C0E0138A3E7A6
:100570004646EAE7204694E74046D1E7D0467BE787
:10058000023B614432E7304609E76444023842E7FF
:10059000704700BF72B6FEE700B595B0302200216B
:1005A00008A803F007FB0023039304930593069325
:1005B00007930193214A116C41F080511164126C30
:1005C00002F080520192019A02931D4A136823F4AB
:1005D000404343F400431360136803F44043029321
:1005E000029B012308934FF48033099302230E9357
:1005F0004FF480030F93192310934FF4A8731193B2
:10060000042312930723139308A800F0E7F880B996
:100610000F23039302210491002305934FF480528A
:100620000692079303A800F027FB20B915B05DF8E8
:1006300004FBFFF7AFFFFFF7ADFF00BF003802403C
:100640000070004010B500F04FFDFFF7A5FF00F06F
:1006500055F800F093FD00224FF400511F4800F0C0
:10066000A1FC00F067FD1E4AA2FB00321D4C92095E
:100670001D49204603F0A6FA2046FFF7B1FD81B2DE
:10068000204600F071FE4FF40051144800F090FC39
:100690004FF47A7000F054FD144B1B78002BE0D01F
:1006A0001521134800F060FE002408E04FF40051CB
:1006B0000A4800F07DFC642000F042FD0134092C62
:1006C000F4D9BFF34F8F0B49CA6802F4E0620A4BBA
:1006D0001343CB60BFF34F8F00BFFDE7000802401C
:1006E000D34D621014020020D444000854020020AC
:1006F0000000002000ED00E00400FA0530B589B0EC
:100700000024039404940594069407940094194BD0
:100710001A6B42F004021A631A6B02F00402009290
:10072000009A01941A6B42F080021A631A6B02F06D
:1007300080020192019A02941A6B42F001021A633C
:100740001B6B03F001030293029B0B4D22464FF4F7
:100750000051284600F026FC4FF400530393012378
:1007600004930594069403A9284600F03BFB09B0C6
:1007700030BD00BF0038024000080240FEE7FEE73F
:10078000FEE7FEE7FEE770477047704708B500F0E8
:10079000C5FC08BD08B5024801F012F908BD00BF4C
:1007A000FC0E002082B0002100910B4B5A6C42F4E9
:1007B00080425A645A6C02F480420092009A01917D
:1007C0001A6C42F080521A641B6C03F08053019340
:1007D000019B02B0704700BF00380240002800F0C3
:1007E000E08170B582B00446036813F0010F3BD07E
:1007F0009F4B9B6803F00C03042B2CD09C4B9B68F5
:1008000003F00C03082B21D06368B3F5803F4FD071
:10081000B3F5A02F52D0964B1A6822F480321A609A
:100820001A6822F480221A606368002B50D000F00E
:1008300081FC05468E4B1B6813F4003F14D100F079
:1008400079FC401B6428F5D90320B1E1884B5B6833
:1008500013F4800FD8D0864B1B6813F4003F03D0ED
:100860006368002B00F09F81236813F0020F54D0BF
:100870007F4B9B6813F00C0F3ED07D4B9B6803F0C1
:100880000C03082B33D0E368002B68D0794B01228E
:100890001A6000F04FFC0546754B1B6813F0020F01
:1008A00054D100F047FC401B0228F5D903207FE11A
:1008B0006F4A136843F480331360B5E76C4B1A68D2
:1008C00042F480221A601A6842F480321A60ABE760
:1008D00000F030FC0546664B1B6813F4003FC3D0A4
:1008E00000F028FC401B6428F5D9032060E1604B30
:1008F0005B6813F4800FC6D15D4B1B6813F0020FC9
:1009000003D0E368012B40F05081594A136823F06B
:10091000F803216943EAC1031360236813F0080F49
:1009200042D063696BB3534B0122C3F8802E00F0B1
:1009300001FC05464E4B5B6F13F0020F34D100F003
:10094000F9FB401B0228F5D9032031E1484A13681E
:1009500023F0F803216943EAC1031360DDE7454B47
:1009600000221A6000F0E6FB0546414B1B6813F0BD
:10097000020FD2D000F0DEFB401B0228F5D9032085
:1009800016E13C4B0022C3F8802E00F0D3FB054655
:10099000374B5B6F13F0020F06D000F0CBFB401B10
:1009A0000228F5D9032003E1236813F0040F77D060
:1009B0002F4B1B6C13F0805F33D1002301932C4B22
:1009C0001A6C42F080521A641B6C03F0805301933E
:1009D000019B0125284B1B6813F4807F23D0A3685B
:1009E000012B34D0052B38D0214B1A6F22F0010295
:1009F0001A671A6F22F004021A67A368002B3DD011
:100A000000F098FB06461A4B1B6F13F0020F46D1FD
:100A100000F090FB801B41F288339842F3D9032009
:100A2000C6E00025D6E7144A136843F480731360C8
:100A300000F080FB0646104B1B6813F4807FCED17C
:100A400000F078FB801B0228F5D90320B0E0084AAB
:100A5000136F43F001031367CFE7054B1A6F42F0A2
:100A600004021A671A6F42F001021A67C5E700BF55
:100A700000380240000047420070004000F05AFB7E
:100A80000646524B1B6F13F0020F08D000F052FBCA
:100A9000801B41F288339842F3D9032088E0EDB9F6
:100AA000A369002B00F08380484A926802F00C0290
:100AB000082A51D0022B17D0454B00221A6600F0AD
:100AC00039FB0446414B1B6813F0007F42D000F015
:100AD00031FB001B0228F5D9032069E03B4A136C67
:100AE00023F080531364DBE7394B00221A6600F0D1
:100AF00021FB0546354B1B6813F0007F06D000F044
:100B000019FB401B0228F5D9032051E0E369226A52
:100B10001343626A43EA8213A26A5208013A43EA23
:100B20000243E26A43EA0263284A5360284B0122E7
:100B30001A6600F0FFFA0446244B1B6813F0007F8E
:100B400006D100F0F7FA001B0228F5D903202FE0A8
:100B500000202DE000202BE0012B2BD01B4B5B68ED
:100B600003F48001E269914226D103F03F02216A39
:100B70008A4223D1616A47F6C0721A40B2EB811FE4
:100B80001ED103F44031A26A5208013AB1EB024F80
:100B900018D103F07063E26AB3EB026F14D1002046
:100BA00006E001207047012002E0012000E0002063
:100BB00002B070BD0120FBE70120F9E70120F7E753
:100BC0000120F5E70120F3E70120F1E700380240BA
:100BD0000000474208B5254B9B6803F00C03042B2B
:100BE0003FD0082B3FD1214B5A6802F03F025B688F
:100BF00013F4800F12D01D4B5968C1F388111C48A3
:100C00000023A1FB0001FFF743FB184B5B68C3F314
:100C1000014301335B00B0FBF3F025E0134B59684F
:100C2000C1F3881C4FEA4C11B1EB0C006EEB0E0EB9
:100C30004FEA8E1343EA90638101091A63EB0E03B6
:100C4000DB0043EA5173C90011EB0C0C43F10003C4
:100C5000990200234FEA8C2041EA9C51FFF718FBD0
:100C6000D3E7034800E0034808BD00BF0038024056
:100C700040787D010024F400002800F09B8070B5CE
:100C80000D4604464F4B1B6803F007038B4208D206
:100C9000CBB24C4A1370136803F007038B4240F049
:100CA0008B80236813F0020F17D013F0040F04D0C9
:100CB000454A936843F4E0539360236813F0080FA8
:100CC00004D0414A936843F4604393603E4A93687A
:100CD00023F0F003A1680B439360236813F0010F26
:100CE00032D06368012B21D09A1E012A25D9364AB9
:100CF000126812F0020F61D033498A6822F00302B1
:100D000013438B6000F016FA06462F4B9B6803F0E6
:100D10000C036268B3EB820F16D000F00BFA801B55
:100D200041F288339842F0D9032042E0264A126803
:100D300012F4003FE0D101203BE0234A126812F098
:100D4000007FD9D1012034E01E4B1B6803F007035C
:100D5000AB4207D9EAB21B4B1A701B6803F00703BA
:100D6000AB422DD1236813F0040F06D0164A9368C6
:100D700023F4E053E1680B439360236813F0080FFA
:100D800007D0114A936823F46043216943EAC10301
:100D90009360FFF71FFF0C4B9B68C3F303130B4AD1
:100DA000D35CD8400A4B18600A4B186800F076F9FB
:100DB000002070BD012070470120FAE70120F8E70C
:100DC0000120F6E7003C024000380240EC440008F5
:100DD0001C00002018000020014B1868704700BF5D
:100DE0001C00002000230F2B00F2D28070B582B0CF
:100DF00060E085685E000324B44025EA0405CC6801
:100E0000B4402C438460456825EA02054C68C4F36D
:100E100000129A402A4342605AE0DC08083450F835
:100E2000246003F0070295000F22AA4026EA020E72
:100E30000A69AA4042EA0E0240F824205CE004223B
:100E400000E0002202FA0EF22A430234514D45F826
:100E50002420514A14686FEA0C0224EA0C054E68FB
:100E600016F4803F01D04CEA04054B4C25606468C1
:100E700002EA04054E6816F4003F01D04CEA04056E
:100E8000454C6560A46802EA04054E6816F4801FAC
:100E900001D04CEA0405404CA560E46822404D684E
:100EA00015F4001F01D04CEA04023B4CE260013310
:100EB0000F2B6BD801229A400C6804EA020C32EA2C
:100EC0000404F4D14C6804F00304013C012C90D9D3
:100ED0004A6802F00302032A09D0C4685D000322B5
:100EE000AA4024EA02048A68AA402243C2604A68EF
:100EF00002F00302022A90D004684FEA430E032254
:100F000002FA0EF224EA02044A6802F0030202FA2C
:100F10000EF2224302604A6812F4403FC7D000221A
:100F200001921E4A546C44F480445464526C02F49E
:100F300080420192019A9C08A51C164A52F825503D
:100F400003F003024FEA820E0F2202FA0EF225EAA4
:100F50000205134A90423FF474AF02F5806290425A
:100F60000ED002F5806290420CD002F58062904271
:100F70000AD002F5806290423FF461AF072261E738
:100F800001225FE702225DE703225BE702B070BD4A
:100F9000704700BF00380140003C0140003802406B
:100FA000000002400AB18161704709048161704705
:100FB000436901EA030221EA030141EA0241816136
:100FC00070470000074AD36823F4E0631B041B0C3E
:100FD000000200F4E060034343F0BF6343F40033D6
:100FE000D360704700ED00E000B5194BDB68C3F338
:100FF0000223C3F1070CBCF1040F28BF4FF0040C0F
:1010000003F1040EBEF1060F18D9033B4FF0FF3E6B
:101010000EFA0CFC21EA0C0199400EFA03F322EAC5
:101020000303194300280BDB0901C9B200F160403A
:1010300000F5614080F800135DF804FB0023E5E74C
:1010400000F00F000901C9B2024B1954F4E700BFC8
:1010500000ED00E014ED00E0002807DB00F01F02C7
:10106000400901239340024A42F82030704700BFF4
:1010700000E100E00138B0F1807F0BD24FF0E023B7
:101080005861054AF02182F8231000209861072258
:101090001A6170470120704700ED00E010B504466A
:1010A0000E4B18784FF47A73B3FBF0F30C4A1068C8
:1010B000B0FBF3F0FFF7DEFF68B90F2C01D9012078
:1010C0000AE0002221464FF0FF30FFF78DFF054B6D
:1010D0001C60002000E0012010BD00BF16000020B1
:1010E0001C0000201800002008B50B4B1A6842F4C1
:1010F00000721A601A6842F480621A601A6842F438
:1011000080721A600320FFF75DFF0F20FFF7C6FF14
:10111000FFF748FB002008BD003C0240034A11686D
:10112000034B1B780B441360704700BF580200202C
:1011300016000020014B1868704700BF58020020BD
:1011400038B50446FFF7F6FF0546B4F1FF3F02D07D
:10115000044B1B781C44FFF7EDFF401BA042FAD361
:1011600038BD00BF16000020034AD2F8883043F48F
:101170007003C2F88830704700ED00E008B5002227
:101180000F49104801F0CEFD70B90F490D4801F02C
:10119000E0FD60B90D490B4802F06FFC50B90948F9
:1011A00001F0EEFD48B908BDFFF7F4F9EDE7FFF7F0
:1011B000F1F9EFE7FFF7EEF9F1E7FFF7EBF9F2E707
:1011C000200000205C02002084000020700000202D
:1011D00012230B80004870473C00002004230B8042
:1011E0000048704750000020002393421ED200B5F3
:1011F00010E00CF1370C01F813C000014FEA430C6A
:101200000CF1010C4FF0000E01F80CE00133DBB2E1
:10121000934209D24FEA107CB0F1204FE9D20CF191
:10122000300C01F813C0E8E75DF804FB70470000DC
:1012300038B50B4BD3F8100AD3F8144AD3F8183A40
:10124000C01800D138BD074D0822A91CFFF7CCFFFC
:10125000042205F112012046FFF7C6FFF2E700BFA6
:101260000070FF1F5400002008B51A230B80FFF701
:10127000DFFF014808BD00BF5400002008B50A4642
:1012800028B90549054802F01CFA034808BD02497F
:10129000024802F016FAF8E72C050020FC4400088A
:1012A00010B50A46034C2146034802F00AFA2046CC
:1012B00010BD00BF2C0500200445000808B50A46F3
:1012C00028B90549054802F0FCF9034808BD024960
:1012D000024802F0F6F9F8E72C0500201C4500084A
:1012E00008B50A4628B90549054802F0EAF9034855
:1012F00008BD0249024802F0E4F9F8E72C05002095
:1013000028450008002070470020704700207047E3
:1013100038B50446084D0146284602F0C0FB284671
:1013200002F0E0FB2378722B01D0002038BD034B84
:1013300001221A70F9E700BF5C020020540200206D
:1013400010B5064C00220649204602F09DFB0549D7
:10135000204602F0A4FB002010BD00BF5C0200206C
:10136000140B00202C070020094BD3F8BC32D3F813
:1013700014320BB10120704710B5054C0A460146E6
:10138000204602F081FB204602F092FB10BD00BF18
:101390005C02002030B589B00023039304930593C9
:1013A000069307930368B3F1A04F01D009B030BD95
:1013B00000250195164C236B43F001032363236B37
:1013C00003F001030193019B4FF4C05303930223E5
:1013D0000493032306930A23079303A90D48FFF7F9
:1013E00001FD636B43F0800363630295636C43F418
:1013F00080436364636C03F480430293029B2A4638
:1014000029464320FFF7F0FD4320FFF725FECDE7F7
:10141000003802400000024008B500F57171D0F8B4
:10142000040401F0C2FC08BD08B5C1EBC10300EB28
:101430008303D3F80822D0F8040401F0E2FC08BDCD
:1014400008B5C1EBC10300EB83039A6CD0F8040428
:1014500001F013FD08BD08B5D0F8040401F0B3FD98
:1014600008BD10B50446C368022B09D10121D4F888
:10147000040401F08EFDD4F8040401F05DFD10BDFC
:10148000FFF788F8F2E7000010B50446D0F804042E
:1014900001F082FD2268D2F8003E43F00103C2F859
:1014A000003E236A23B1034A136943F00603136124
:1014B00010BD00BF00ED00E008B5D0F8040401F055
:1014C00075FD08BD08B5D0F8040401F0A4FD08BD01
:1014D00008B5D0F8040401F08AFD08BD08B5D0F8BD
:1014E000040401F0ACFD08BD08B5D0F8040401F017
:1014F000A8FD08BD02780AB10020704710B5034668
:101500001548C0F80434C3F8C4024FF0A043036088
:10151000042343600222C260002303618261C3612D
:1015200003624362C362036300F0F0F880B90A4CBF
:101530008021204600F01DFE40220021204600F0C0
:10154000F2FD80220121204600F0EDFD002010BDBB
:10155000FFF720F8EBE700BFFC0E0020D0F8C43204
:1015600011F0800F08D101F07F01C1EBC10103EB45
:10157000810191F8FE01704701F07F01C1EBC101CB
:1015800003EB810191F83E00704708B5D0F8C40222
:1015900000F012FD08BD0000004870470413002051
:1015A0007047032805D8DFE800F005040205012094
:1015B00070470320704708B5D0F8C40200F03DF929
:1015C000FFF7EFFF08BD08B594461A466346D0F80A
:1015D000C40200F044FCFFF7E4FF08BD08B5D0F8F2
:1015E000C40200F081FCFFF7DCFF08BD08B5D0F8AD
:1015F000C40200F019FDFFF7D4FF08BD08B5D0F80C
:10160000C40200F055FDFFF7CCFF08BD08B5D0F8C7
:10161000C40200F010FCFFF7C4FF08BD08B5D0F805
:10162000C40200F0D2FCFFF7BCFF08BD08B5D0F83B
:10163000C40200F092FCFFF7B4FF08BD2DE9F043AF
:1016400083B0D0F80080C1EBC10300EB83035A6D77
:101650001B6D9A4254D807460C469B1AC1EBC10237
:1016600000EB8202526C9A4200D31A4602F103093F
:101670004FEA990915E006F103094FEA9909C4EB0D
:10168000C40507EB8505A96C3B7C0093B3B2E2B2BD
:10169000404601F0BBF8AB6C3344AB646B6D334434
:1016A0006B6508EB441303F510639B699BB24B45D4
:1016B00012D3C4EBC40207EB8202516D136D994241
:1016C0000AD24BB15B1AC4EBC40207EB8202566C20
:1016D0009E42D0D31E46CEE7C4EBC40007EB800782
:1016E0003A6D7B6D9A420FD804F00F040123A3409A
:1016F000D8F8344824EA0304C8F83448002000E04D
:10170000012003B0BDE8F0830020FAE770B58AB08D
:10171000002800F090800546046890F8BD333BB384
:10172000032385F8BD33E36B13F4807F01D10023DD
:101730002B61286800F006FE2C4654F8106BEC462E
:101740000FCCACE80F000FCCACE80F0094E803001E
:101750008CE803002B1D0ECB304600F035FD04460F
:1017600058B1022385F8BD33012420460AB070BD6C
:1017700080F8BC33FFF70EFED2E70021286801F0A5
:101780005FFA234616E0C3EBC30205EB8202012198
:1017900082F83D1082F83C30A2F84230002182F8F5
:1017A0003F1051649164C3EBC30205EB82021165E3
:1017B0000133DBB269688B42E5D316E0C4EBC403A6
:1017C00005EB8303002283F8FD2183F8FC4183F8B5
:1017D000FF21C3F80422C3F80822C4EBC40305EBBD
:1017E0008303C3F810220134E4B2A142E6D82C46A8
:1017F00054F8106BEC460FCCACE80F000FCCACE803
:101800000F0094E803008CE803002B1D0ECB30463C
:1018100000F0D4FD044620B1022385F8BD33012435
:10182000A3E7002385F83830012385F8BD33286805
:1018300001F0C3F999E7012497E7026890F8BC33F7
:10184000012B19D010B50446012380F8BC33836AFC
:10185000012B09D0206800F06FFD206801F09FF98E
:10186000002084F8BC0310BD8369012BF2D0936B78
:1018700043F480339363EDE70220704770B504466C
:101880000D460068066C00EB411303F530639A685F
:101890002169012911D034498E424ED03DB9C5EBA2
:1018A000C50304EB8303D3F81032002B56D0E9B202
:1018B0002046FFF7B9FD002070BD12F0080F09D0D7
:1018C0002A498E42F7D912F4004FF4D04FF4004267
:1018D0009A60F0E712F0200F02D020229A60EAE727
:1018E00012F0280FE7D121498E4206D912F4004F99
:1018F00003D04FF400429A60DDE7C5EBC50204EB6C
:101900008202D2F804121B69C3F31203CB1AC2F885
:101910001432D2F808320B44C2F8083215B9D2F8A2
:10192000103223B1E9B22046FFF77EFDC3E704F58C
:101930007172012101F0C6F9F4E712F4004F03D0EF
:101940004FF400429A60B6E712F0200F01D0202237
:101950009A60E9B22046FFF767FDACE704F57172C3
:10196000002101F0AFF9A2E70A31544F0A30544F79
:1019700038B5044603681D6C03EB4113D3F8081B0C
:101980000E4A954207D903F5306311F4004F02D097
:101990004FF400429A602046FFF73EFD074B9D4200
:1019A00002D92369012B01D0002038BD04F57172E2
:1019B0000121206801F086F9F6E700BF0A30544F94
:1019C0002DE9F84F04460568284601F035F908B1BD
:1019D000BDE8F88F0646206801F0FDF80028F7D032
:1019E000206801F0F8F810F0020F04D02268536963
:1019F00003F002035361206801F0EDF810F0100FBE
:101A000013D02268936923F0100393612F6A07F0C3
:101A10000F08C7F34343022B68D0062B00F08480E5
:101A20002268936943F010039361206801F0D3F8B2
:101A300010F4002F40F08A80206801F0CCF810F4F8
:101A4000802F40F0CC80206801F0C5F80028C0F25B
:101A50003681206801F0BFF810F4006F0AD0D5F885
:101A6000083813F0010F40F044812268536903F4F1
:101A700000635361206801F0AEF810F4805F40F01D
:101A80003C81206801F0A7F810F4005F40F09181DC
:101A9000206801F0A0F810F0080F40F0A281206843
:101AA00001F099F810F4801F40F0A481206801F043
:101AB00092F810F4001F40F0A781206801F08BF825
:101AC00010F0804F40F0AA81206801F084F810F0F7
:101AD000040F3FF47DAF23685D6815F0040F40F0FC
:101AE000A681226853682B43536071E747F6F07371
:101AF0001F4295D04FEA171BC8EBC80904EB8909B0
:101B0000C7F30A12D9F80812284600F0B3FFCBF346
:101B10000A02D9F808321344C9F80832D9F8143245
:101B20001A44C9F814227BE7082204F5717128468B
:101B300000F0A0FFC7F30A17C8EBC80204EB82024B
:101B4000D2F814321F44C2F8147269E7206801F019
:101B500046F80746B04616E005EB48130122C3F8E5
:101B6000082B41462046FFF789FE1BE005EB481392
:101B70000822C3F8082B41462046FFF7F9FE14E07F
:101B800008F101087F08002F3FF456AF17F0010F4E
:101B9000F6D05FFA88F1206801F031F8814610F044
:101BA000010FD9D119F0080FE0D119F0100F04D0AE
:101BB00005EB48131022C3F8082B19F0200F04D0AE
:101BC00005EB48132022C3F8082B19F4005FD7D087
:101BD00005EB48134FF40052C3F8082BD0E72068F8
:101BE00001F005F80746B04629E051462046FFF7C8
:101BF00027FC19F0080F04D005EB48130822C3F89E
:101C0000082919F0100F04D005EB48131022C3F86F
:101C1000082919F0400F04D005EB48134022C3F8FF
:101C2000082919F0020F04D005EB48130222C3F86B
:101C3000082919F0800F3DD108F101087F08002F15
:101C40003FF401AF17F0010FF6D05FFA88FA514662
:101C5000206800F0DDFF814610F0010FC9D008F0C8
:101C60000F03012101FA03F2D5F8343823EA020305
:101C7000C5F8343805EB4813C3F8081923698B42BB
:101C8000B3D1C8EBC80304EB8303596C9A6C0A44C4
:101C90009A64B8F1000FA8D1C8EBC80304EB830322
:101CA0001B6D002BA1D104F571720121206801F098
:101CB00009F89AE741462046FFF7C0FCBCE7D5F893
:101CC000043823F00103C5F8043894F8F433012BE9
:101CD00008D02046FFF7F0FB2268536903F0004369
:101CE0005361B6E6002184F8F413204600F045FA6B
:101CF000F2E72046FFF7C8FBB7E605F500677B680B
:101D000023F001037B601021206800F021FB20E01C
:101D100005EB46134FF67F31C3F80819D3F80029B5
:101D200022F40012C3F80029D3F8002942F000621F
:101D3000C3F80029C3F8081BD3F8002B22F40012C3
:101D4000C3F8002BD3F8002B42F00062C3F8002B3D
:101D500001366368B342DBD8FB6943F00113FB61D2
:101D6000236BDBB1D7F8843043F00B03C7F8843022
:101D70007B6C43F00B037B64D5F8003823F4FE63DF
:101D8000C5F8003804F57172217C206800F09AFFD4
:101D90002268536903F48053536172E67B6943F40C
:101DA000005343F02B037B613B6943F00B033B6122
:101DB000E2E7206800F075FF206800F0C7FBE060F4
:101DC0002568FFF709F80146227B284600F042FA11
:101DD0002046FFF746FB2268536903F40053536122
:101DE00056E62046FFF737FB2268536903F00803E5
:101DF000536154E600212046FFF76AFB22685369CD
:101E000003F48013536151E600212046FFF75AFB8B
:101E10002268536903F4001353614EE62046FFF72E
:101E20005DFB2268536903F0804353614CE6204612
:101E3000FFF75AFB55E690F8BC33012B0DD010B5D7
:101E40000446012380F8BC3380F83810006800F0A5
:101E500096FE002084F8BC0310BD0220704738B500
:101E600005468C4611F0800F29D101F00F0ECEEB04
:101E7000CE04A40004F5FC740444211DCEEBCE0E68
:101E800000EB8E0E00208EF8FD010CF00F0C81F897
:101E900000C08A60CB704A780AB1A1F806C0022B54
:101EA0001DD095F8BC33012B1CD0012385F8BC3321
:101EB000286800F05CFB002085F8BC0338BD01F009
:101EC0000F00C0EBC0018900383129440431C0EB58
:101ED000C00005EB8000012480F83D40D5E70023D9
:101EE0000B71DEE70220E9E710B504460A4611F05F
:101EF000800F20D101F00F00C0EBC0039B0003F561
:101F0000FC732344191DC0EBC00004EB80000023C8
:101F100080F8FD3102F00F020A7094F8BC33012BF7
:101F200019D0012384F8BC33206800F06FFB002037
:101F300084F8BC0310BD01F00F00C0EBC0039B0090
:101F400038332344191DC0EBC00004EB800001238B
:101F500080F83D30DEE70220ECE710B501F00F0419
:101F6000C4EBC401890001F5FC7101440431C4EBE8
:101F7000C40C00EB8C0CCCF80822CCF810320023F7
:101F8000CCF814328CF8FD318CF8FC410369012B3C
:101F900006D064B9DAB2006800F0A8FB002010BDDA
:101FA000C4EBC40C00EB8C0CCCF80C22F1E7DAB2D9
:101FB000006800F043FCF1E701F00F01C1EBC10143
:101FC00000EB8101D1F81402704710B501F00F0445
:101FD000C4EBC4018900383101440431C4EBC40CA2
:101FE00000EB8C0CCCF84820CCF850300023CCF817
:101FF000543001238CF83D308CF83C400369012BB0
:1020000006D064B9DAB2006800F070FB002010BDA1
:10201000C4EBC40C00EB8C0CCCF84C20F1E7DAB22A
:10202000006800F00BFCF1E738B501F00F054268DD
:10203000954239D804460B4611F0800F1FD1C1EBF1
:10204000C101890001F5FC7101440431C3EBC303F4
:1020500000EB8303002283F8FD2101238B700D70B8
:1020600094F8BC33012B21D0012384F8BC332068C1
:1020700000F02AFD8DB1002084F8BC0338BDC5EB0B
:10208000C5018900383101440431C5EBC50300EBBB
:102090008303012283F83D20DFE704F57172217C80
:1020A000206800F00FFEE6E70120E7E70220E5E701
:1020B00001F00F034268934231D810B5044611F085
:1020C000800F1ED1C3EBC301890001F5FC710144EF
:1020D0000431C3EBC30200EB8202002082F8FD0151
:1020E00000228A700B7094F8BC33012B19D00123A5
:1020F00084F8BC33206800F014FD002084F8BC0391
:1021000010BDC3EBC3018900383101440431C3EB76
:10211000C30200EB8202012082F83D00E0E70120CB
:1021200070470220ECE710B40468606A31B940EAF5
:102130000240A06200205DF8044B70478C46A36A01
:1021400000EB1340002308E003F1400104EB8101A0
:10215000496800EB11400133DBB20CF1FF318B42D7
:10216000F2D340EA02400CF13F0104EB81014860E8
:10217000E0E70368596200207047704782B000238F
:102180000193019B013301930E4A934214D80369D2
:10219000002BF6DA00230193036943F00103036186
:1021A000019B01330193074A934208D8036913F056
:1021B000010FF5D1002000E0032002B0704703209A
:1021C000FBE700BF400D030084B010B5044603A830
:1021D00080E80E00089B012B1FD1A36B23F48033F2
:1021E000A363E36823F4840323F04003E360E3681C
:1021F00023F44013E3600F9B012B09D02046FFF727
:10220000BDFF069B012B1BD0BDE8104004B07047FA
:10221000E36843F48013E360F0E7E36843F04003CE
:10222000E3602046FFF7AAFF0C9B23B9A36B43F49E
:102230008033A363E5E7A36B23F48033A363E0E774
:10224000A36843F00603A360A36843F02003A360E0
:10225000DAE70000022A0AD00921C26822F470528B
:10226000C260C36843EA8123C36000207047234BE8
:102270000B44234A93422FD9224B0B44224A9342C8
:102280002CD9A1F57403A3F51053204A934227D902
:10229000A1F18373A3F5E7431D4A934222D31D4B5B
:1022A0000B441D4A93421FD91C4B0B441C4A9342BA
:1022B0001CD31C4B0B441C4A934219D3A1F1B77396
:1022C000A3F55853194A934214D3194B0B44194A96
:1022D000934211D20721C0E70F21BEE70E21BCE7D0
:1022E0000D21BAE70C21B8E70B21B6E70A21B4E7C4
:1022F0000921B2E70821B0E70621AEE7405327FFE6
:10230000FF340C00401E1BFF3F420F007F4F1200A6
:1023100020D6130060B6E5FE5FE3160000D3CEFEC4
:1023200040771B00C05BB3FEC091210020753800D0
:10233000E05459FEE09C4100836843F00103836050
:1023400000207047836823F00103836000207047FA
:1023500082B000230193890141F020010161019BBA
:1023600001330193054A934205D8036913F0200F06
:10237000F5D1002000E0032002B07047400D0300BB
:1023800082B00023019310230361019B0133019369
:10239000054A934205D8036913F0100FF5D10020C8
:1023A00000E0032002B07047400D0300D0F8003871
:1023B0001943C0F8001800207047000084B02DE9D0
:1023C000F041044607A880E80E00002306E003F170
:1023D000400204EB82020021516001330E2BF6D93A
:1023E000119F27BBD4F8043843F00203C4F8043823
:1023F000A36B43F40013A363A36B23F40023A36331
:10240000A36B23F48023A3630023C4F8003E04F5E8
:102410000065D4F80038C4F800380C9B012B14D1A7
:10242000099B6BB900212046FFF7C0FF11E0A36BA9
:1024300023F40013A363A36B43F40023A363E3E734
:1024400001212046FFF7B2FF03E003212046FFF7FA
:10245000ADFF10212046FFF77BFF804608B14FF00B
:1024600001082046FFF78CFF08B14FF00108002358
:102470002B616B61EB610AE0C3B94FF00060C2F8F9
:10248000000900220A614FF67F328A600133079902
:10249000994210D904EB431202F51061D2F80009F9
:1024A0000028E9DB0020C2F80009EAE74FF090407D
:1024B000C2F80009E5E700230AE0C3B14FF0904CF1
:1024C000C2F800CB002202614FF67F3282600133F6
:1024D000994211D904EB431202F53060D2F8006B37
:1024E000002EEADB4FF0000CC2F800CBEAE74FF019
:1024F000006CC2F800CBE5E72B6923F480732B61F5
:102500000023A3616FF0804363610A9B1BB9A36939
:1025100043F01003A361A2690B4B1343A3610D9B0E
:102520001BB1A36943F00803A361012F04D0404607
:10253000BDE8F04104B07047A36943F0804343F025
:102540000403A361F3E700BF00383C80D0F80838EB
:1025500013F0060307D0022B07D0062B01D00F2063
:10256000704702207047002070470220704710B566
:1025700091F800C04B78012B23D000F5006ED0F805
:102580001C380CF00F040122A24043EA0243C0F8B9
:102590001C3800EB4C10D0F8003B13F4004F0ED168
:1025A000D0F8003B8A68C2F30A02C97842EA814245
:1025B000134343F0805343F40043C0F8003B002032
:1025C00010BDD0F81C280CF00F0E03FA0EF39BB2CE
:1025D0001343C0F81C3800EB4C10D0F8003913F44A
:1025E000004FECD1D0F800398A68C2F30A02C978EA
:1025F00042EA814242EA8C5C43EA0C0343F0805396
:1026000043F40043C0F80039D9E7000030B40B7838
:102610004A78012A26D000EB4313D3F8002B002A76
:1026200052DBD0F83C480A7802F00F024FF0010C60
:102630000CFA02F224EA0242C0F83C28D0F81C2826
:10264000097801F00F010CFA01FC22EA0C42C0F8F3
:102650001C28D3F8001B234A0A40C3F8002B002093
:1026600030BC704700EB4313D3F80029002A1EDB6F
:10267000D0F83C580A7802F00F02012404FA02F262
:1026800092B225EA0202C0F83C28D0F81C2809784A
:1026900001F00F018C40A4B222EA0404C0F81C48E7
:1026A000D3F80019104A0A40C3F80029D7E7D3F835
:1026B000002942F00062C3F80029D3F8002942F053
:1026C0008042C3F80029D3E7D3F8002B42F0006220
:1026D000C3F8002BD3F8002B42F08042C3F8002B44
:1026E0009FE700BF0078F3EF007833EC70B40B780D
:1026F0004C78012C27D000EB431000F530631C69A7
:10270000E40CE4041C611C6924F0FF5424F4C0149C
:102710001C614C690CB18C684C611C6944F4002448
:102720001C611C698D68C5F3120C44EA0C041C6121
:10273000012A66D0D0F8003B43F00443C0F8003BC8
:10274000002070BC70474C696CBB00EB4314D4F89C
:10275000105925F0FF5525F4C015C4F81059D4F8C8
:10276000105945F40025C4F81059D4F81059ED0C4F
:10277000ED04C4F81059012A34D000EB4313D3F808
:10278000002942F00442C3F800294B69002BD7D03E
:10279000D0F834380A7802F00F0101228A4013433E
:1027A000C0F83438CCE700EB431404F51064256915
:1027B000ED0CED042561256925F0FF5525F4C015C4
:1027C00025618D684E69AE4200D94D61256945F499
:1027D0000025256125694E69C6F3120C45EA0C05F2
:1027E0002561C8E70A691AB100EB4311C1F8142941
:1027F00000EB4310D0F8002942F00442C0F8002951
:102800009EE7CA68002A95D05A6193E710B59DF8F3
:10281000084084B903334FEA930E4FF0000C08E0F0
:1028200000EB023303F5805351F8044B1C600CF1AC
:10283000010CF445F4D3002010BD0000F0B583B0C6
:102840000B784C78012C33D000EB431303F5306C3C
:10285000DCF81040E40CE404CCF81040DCF8104044
:1028600024F0FF5424F4C014CCF810404C69002C20
:1028700040F0CA80DCF810408D68C5F312052C4387
:10288000CCF81040DCF8104044F40024CCF81040A0
:10289000012A00F0D380CA78012A00F0D680D3F84C
:1028A000002B42F00442C3F8002B002003B0F0BD1F
:1028B0004C6984BB00EB4314D4F8105925F0FF5544
:1028C00025F4C015C4F81059D4F8105945F4002562
:1028D000C4F81059D4F81059ED0CED04C4F810598F
:1028E000012A4FD000EB4313D3F8004944F00444CD
:1028F000C3F80049CC78012C6DD04B69002BD4D0A3
:10290000D0F834380A7802F00F0101228A401343CC
:10291000C0F83438C9E700EB4314D4F81059ED0C73
:10292000ED04C4F81059D4F8105925F0FF5525F4DA
:10293000C015C4F81059D4F810598E684F6907EBC8
:10294000060C0CF1FF3CBCFBF6FC494E06EACC4CF5
:1029500045EA0C05C4F81059D4F810594E69C6F36D
:1029600012063543C4F8105904F51064CD78012DD2
:10297000B6D1256925F0C0452561256945F000558A
:102980002561ADE70A691AB100EB4314C4F81429B4
:10299000CA78012A08D000EB4313D3F8002942F08B
:1029A0000442C3F8002980E7D0F8082812F4807F99
:1029B00008D100EB4311D1F8002942F00052C1F8D0
:1029C0000029E8E700EB4311D1F8002942F08052DA
:1029D000C1F80029DFE7D0F8084814F4807F0CD153
:1029E000D3F8004944F00054C3F8004900928B8AA0
:1029F0000A78C968FFF70AFF57E7D3F8004944F09F
:102A00008054C3F80049F1E78D682C44013CB4FBC5
:102A1000F5F4DCF810501FFA84FE154E06EAC444A3
:102A20002543CCF81050DCF810508C680EFB04F4F1
:102A3000C4F312042C43CCF8104029E7CA68002ADA
:102A40003FF429AFCCF8142025E7D0F8082812F479
:102A5000807F06D1D3F8002B42F00052C3F8002B40
:102A60001DE7D3F8002B42F08052C3F8002B16E785
:102A70000000F81F00B583B0844608464FEA920E66
:102A800002F00302002305E00CF58051096840F8CC
:102A9000041B01337345F7D39AB10CF5805CDCF865
:102AA000003001934FF0000C5FFA8CF3D900019BCA
:102AB000CB4000F8013B0CF1010C013A92B2002A24
:102AC000F2D103B05DF804FB0B784A78012A14D0E8
:102AD00000EB4310D0F8002B002A06DB2BB1D0F816
:102AE000003B23F08043C0F8003BD0F8003B43F4A8
:102AF0000013C0F8003B0020704700EB4310D0F8F3
:102B00000029002A06DB2BB1D0F8003923F08043DE
:102B1000C0F80039D0F8003943F40013C0F8003988
:102B2000E9E70B784A78012A0ED000EB4310D0F881
:102B3000003B23F40013C0F8003BCB78023BDBB230
:102B4000012B15D90020704700EB4310D0F8003955
:102B500023F40013C0F80039CB78023BDBB2012B21
:102B6000F0D8D0F8003943F08053C0F80039E9E7D5
:102B7000D0F8003B43F08053C0F8003BE2E7D0F8C8
:102B8000003823F4FE63C0F80038D0F8003809019B
:102B900001F4FE611943C0F8001800207047D0F816
:102BA000003E23F00303C0F8003ED0F8043823F0C1
:102BB0000203C0F8043800207047D0F8003E23F02C
:102BC0000303C0F8003ED0F8043843F00203C0F815
:102BD0000438002070474269806910407047D0F87F
:102BE000183800F50060C0691840000C7047D0F834
:102BF000183800F50060C069184080B2704700EBDB
:102C00004111D1F8082B00F5006040691040704771
:102C100010B4D0F81048D0F8343801F00F02D34087
:102C2000DB01DBB2234300EB411000F5106080684C
:102C300018405DF8044B7047406900F00100704790
:102C400038B50546C36823F0C043C360012913D0DB
:102C500019BBC36843F08043C36000240120FEF722
:102C60006FFA01342846FFF7E7FF08B1312CF5D998
:102C7000322C14D0002038BDC36843F00053C36029
:102C800000240120FEF75CFA01342846FFF7D4FF48
:102C90000128EDD0312CF4D9EAE70120EBE701203F
:102CA000E9E7D0F8003923F4FF6323F00703C0F805
:102CB0000039D0F8043843F48073C0F80438002099
:102CC0007047000010B4046C154B9C4203D9D0F837
:102CD000003B002B16DB0024C0F8104BD0F8104B43
:102CE00044F40024C0F8104BD0F8104B44F0180402
:102CF000C0F8104BD0F8104B44F0C044C0F8104B53
:102D0000012903D000205DF8044B7047C0F8142B54
:102D1000D0F8003B43F08023C0F8003BF2E700BF4F
:102D20000A30544F98B108B503460020C3F8B802E2
:102D3000C3F8C002C3F8CC0209B1C3F8B412012130
:102D400083F89C121A701846FEF7D4FB08BD0320C6
:102D5000704710B582B00023ADF8063061B104466B
:102D6000C0F8B812CB6A4BB10DF106009847C4F811
:102D7000CC02002002B010BD0320FBE70020F9E7E1
:102D800008B5FEF718FC08BD08B5D0F8B83213B185
:102D90001B68984708BD0320FCE708B5D0F8B83297
:102DA0000BB15B689847002008BD38B5044600F2B7
:102DB000AA25284600F065F90123C4F89432B4F836
:102DC000B032C4F8983294F8AA1201F01F03012B14
:102DD0000DD0022B10D02BB101F080012046FEF760
:102DE00005FC03E02946204600F009FB38BD2946D2
:102DF000204600F03CFBF9E72946204600F06BFB3B
:102E0000F4E738B504460D4641BB1346D0F894228A
:102E1000032A01D0084638BDD0F85C11D0F86021F3
:102E2000914209D890F89C32DBB2032B0FD0204698
:102E300000F090FC2846EEE7891AC0F85C118A423F
:102E400028BF0A46194600F07DFC2846E3E7D0F883
:102E5000B8321B69002BEAD09847E8E790F89C321B
:102E6000DBB2032B01D00020D5E7D0F8B8329B6944
:102E70000BB19847CFE70020CDE738B504460D46A3
:102E800000294AD11346D0F89422022A05D094F89A
:102E9000A032012B3CD0284638BDC269016A8A4263
:102EA0000ED88A4218D094F89C32DBB2032B27D07C
:102EB00080212046FEF79AFB204600F056FCE6E70C
:102EC000521AC261194600F026FC00231A46194620
:102ED0002046FEF7ABFBDAE783699942E3D8D0F8E6
:102EE00098229342DFD20022114600F014FC002108
:102EF000C4F898120B460A462046FEF797FBC6E731
:102F0000D4F8B832DB68002BD2D020469847CFE700
:102F1000002384F8A0322846BEE790F89C32DBB24A
:102F2000032B01D00020B7E7D0F8B8325B690BB1B2
:102F30009847B1E70020AFE7012380F89C320023D7
:102F4000C0F894324360C0F8A432D0F8B832F3B17C
:102F500070B50446D0F8BC221AB15B680BB10021F1
:102F600098474023002211462046FEF72CFB0126FD
:102F7000A4F864614025C4F860512B4600228021EA
:102F80002046FEF720FBA6842562002070BD0320AA
:102F9000704701740020704790F89C32DBB280F8D3
:102FA0009D32042380F89C320020704790F89C32B8
:102FB000DBB2042B01D00020704790F89D32DBB2C9
:102FC00080F89C32F7E7D0F8B82262B108B590F8E3
:102FD0009C32DBB2032B01D0002008BDD36923B1A2
:102FE00098470020F9E7032070470020F5E7D0F864
:102FF000B82262B108B590F89C32DBB2032B01D045
:10300000002008BD136A23B198470020F9E7032088
:1030100070470020F5E7D0F8B82262B108B590F803
:103020009C32DBB2032B01D0002008BD536A23B1D0
:1030300098470020F9E7032070470020F5E70020BB
:10304000704708B5012380F89C32D0F8B83213B12C
:103050005B6801799847002008BD0346002002E024
:103060000130C0B201331A78002AF9D1704708B58F
:103070004B88012B00D008BDC0F8A43200F06AFBD9
:10308000F9E70B7803704B7843708B78CA7843EA82
:10309000022343800B794A7943EA022383808B79A8
:1030A000CA7943EA0223C380704710B504468021E1
:1030B000FEF79CFA00212046FEF798FA10BD30B5C5
:1030C00083B004460D460023ADF806304A88130A43
:1030D000013B062B00F2AB80DFE803F0041F33A9AD
:1030E000A98D9A00D0F8B4321B680DF10601007C5E
:1030F0009847EA88002A00F0A380BDF80630002B2C
:1031000000F099809A4228BF1A46ADF80620014681
:10311000204600F0F3FA03B030BD037C43B9D0F889
:10312000B8329B6A0DF10600984702234370E0E72E
:10313000D0F8B832DB6A0DF10600984702234370DD
:10314000D7E7D2B2052A52D8DFE802F003101D2AD1
:103150003744D0F8B4325B6823B10DF10601007C2E
:103160009847C6E72946FFF7A0FFD4E7D0F8B43266
:103170009B6823B10DF10601007C9847B9E7294609
:10318000FFF793FFC7E7D0F8B432DB6823B10DF146
:103190000601007C9847ACE72946FFF786FFBAE7AF
:1031A000D0F8B4321B6923B10DF10601007C9847B9
:1031B0009FE72946FFF779FFADE7D0F8B4325B69A6
:1031C00023B10DF10601007C984792E72946FFF7ED
:1031D0006CFFA0E7D0F8B4329B6923B10DF1060172
:1031E000007C984785E72946FFF75FFF93E729466C
:1031F000FFF75BFF8FE7037C33B9D0F8B8325B6B26
:103200000DF10600984774E72946FFF74EFF82E765
:10321000037C43B9D0F8B8321B6B0DF10600984718
:103220000723437065E72946FFF73FFF73E7294609
:10323000FFF73BFF6FE729462046FFF736FF6AE7B7
:10324000204600F087FA66E738B504468B88FBB95C
:10325000CB88EBB94B887F2B1AD803F07F0590F809
:103260009C32DBB2032B0CD080F89E522946FEF72D
:10327000CDF9204600F06EFA35B1022384F89C3275
:1032800009E0FFF712FF06E0012384F89C3202E018
:103290002046FFF70AFF38BD70B504460E468D780C
:1032A0002E4B1D70012D10D890F89C32DBB2022BF2
:1032B0000FD0032B23D0FFF7F8FE284B19782046B8
:1032C000FFF76BFD0325284670BDFFF7EEFE0325D3
:1032D000F9E78DB145602946FFF756FD054620B157
:1032E00031462046FFF7E1FEEDE7204600F032FAD6
:1032F000032384F89C32E6E700F02CFAE3E7CDB133
:1033000041688D4225D0C9B2FFF747FD134B1978AC
:1033100061602046FFF738FD0546B0B131462046D2
:10332000FFF7C3FE21792046FFF737FD022384F81B
:103330009C32C8E7022380F89C3245602946FFF79B
:103340002CFD204600F006FABDE7204600F002FA08
:10335000B9E700F0FFF90025B5E700BF241500200C
:1033600008B5CB88012B0BD190F89C32DBB2022B35
:1033700009D9032B09D10122011D00F0BFF901E099
:10338000FFF793FE08BD5BB213B9FFF78EFEF9E7B6
:103390000146002341F8083F012200F0AFF9F1E7B0
:1033A00008B590F89C32013B022B12D8CB88022B37
:1033B0000CD10123C360D0F8A4320BB10323C36046
:1033C000022200F10C0100F099F908BDFFF76DFE33
:1033D000FBE7FFF76AFEF8E708B590F89C32013B7F
:1033E000022B09D84B88012B00D008BD0023C0F860
:1033F000A43200F0AFF9F8E7FFF757FEF5E738B56C
:103400000C7804F06004202C06D0402C04D054B179
:10341000FFF74BFE002404E0D0F8B8329B689847D1
:103420000446204638BD4D78092D1DD8DFE805F04B
:1034300012191C161C08051C0F0BFFF740FEF0E7C5
:10344000FFF702FFEDE7FFF727FF0446E9E7FFF785
:1034500087FFE6E7FFF7A4FF2C46E2E7FFF707FE4A
:10346000DFE7FFF7B9FFDCE7FFF71FFED9E770B52D
:1034700005460C460B7803F06003202B07D0402B49
:1034800005D023B1FFF711FE0026304670BD95F838
:103490009C32013B022B18D82379012B0FD8D5F889
:1034A000B8329B682146284698470646E388002B99
:1034B000EBD10028E9D1284600F04CF9E5E7214698
:1034C0002846FFF7F2FD0026DFE721462846FFF7F2
:1034D000ECFD0026D9E7F8B506460D468B880C783A
:1034E00004F06004202C08D0D9B2402C05D06CB177
:1034F0002946FFF7DAFD002406E0D6F8B8329B68CB
:1035000029463046984704462046F8BD6F78012F7B
:103510002FD0032F05D0002F59D02946FFF7C5FD26
:10352000F2E790F89C32DBB2022B05D0032B12D0CD
:103530002946FFF7BAFDE7E709B1802904D12946FA
:103540003046FFF7B2FDDFE7FEF750F88021304646
:10355000FEF74CF8D8E76B8823B919B1802901D060
:10356000EB881BB1304600F0F5F8CDE7FEF73EF8EA
:10357000F8E790F89C32DBB2022B05D0032B12D077
:103580002946FFF792FDBFE709B1802904D12946FA
:103590003046FFF78AFDB7E7FEF728F8802130466E
:1035A000FEF724F8B0E76B88002BADD111F07F0F48
:1035B0000AD1304600F0CEF8D6F8B8329B682946DA
:1035C0003046984704469FE7FEF718F8F1E790F871
:1035D0009C22D2B2022A06D0032A29D02946FFF71C
:1035E00064FD3C4690E709B1802913D113F0800FA8
:1035F00015D101F07F0101EB8101890001F5A8716E
:103600003144043100230B600222304600F076F88A
:103610003C4679E72946FFF748FD3C4674E701F050
:103620007F0101EB81018900103131440431E9E768
:103630005BB2002B1FDB01F00F0202EB820200EBFA
:103640008202B2F8642122B3002B27DB01F07F0352
:1036500003EB83039C0004F5A8743444043409B1DB
:10366000802924D10023236002222146304600F025
:1036700045F83C4648E701F00F0202EB820200EBFE
:103680008202928C002ADFD12946FFF70EFD3C46CC
:103690003AE72946FFF709FD3C4635E701F07F038D
:1036A00003EB83039C00103434440434D7E73046E2
:1036B000FDF754FF10B101232360D5E700232360F9
:1036C000D2E7D0B170B50D4616460446FFF7C5FCEB
:1036D000431C5B009BB233802B7003236B7002236F
:1036E00007E0EA5401345A1CD2B20021A954023333
:1036F000DBB22278002AF4D170BD704708B51346BA
:103700000222C0F894228361C3610A460021FDF7BA
:1037100085FF002008BD08B513460A460021FDF7C5
:103720007DFF002008BD08B513460322C0F894228F
:10373000C0F85831C0F85C310A460021FDF776FF29
:10374000002008BD08B513460A460021FDF76EFFAC
:10375000002008BD08B50422C0F8942200231A46B0
:103760001946FDF75BFF002008BD08B50522C0F82B
:10377000942200231A461946FDF758FF002008BD81
:1037800010B5D0F8BC4284B1D0F8C0327BB194F807
:103790000002FF280DD09B6894F80122214698472B
:1037A000FF2384F80032002010BD0320FCE7002036
:1037B000FAE70020F8E70000432303800048704741
:1037C000BC00002043230380004870470001002014
:1037D0004323038000487047500100200A230380E0
:1037E000004870474401002038B5D0F8BC5275B18C
:1037F0000446FDF7CAFEC5F80C02D4F8C032DB68F7
:1038000005F50371D5F804029847002038BD032060
:10381000FCE710B5D0F8C442D0F8BC3253B301EB8A
:10382000810200EB820292694AB1C1EBC10C04EB48
:103830008C04646CB2FBF4FC04FB1C2272B1002209
:10384000C3F81422D0F8C0221469ACB10A4603F5BB
:103850000471D3F80802A047002010BD01EB8103DA
:1038600000EB830300249C6123462246FDF7D6FE2D
:103870002046F2E70320F0E70020EEE7F0B583B042
:10388000D0F8BC6200238DF80730ADF80430002E6C
:103890006CD007460C460B7813F060052AD0202D1B
:1038A0005ED1CA88F2B113F0800F0FD0D0F8C032C9
:1038B0009B68314660789847E288072A28BF07222C
:1038C00031463846FFF71AFF00254CE04B7886F862
:1038D00000328B7986F80132CA883146FFF723FF20
:1038E000002540E0D0F8C0329B6800224878984715
:1038F000002538E04E780B2E2ED8DFE806F006348F
:103900002D2D2D2D2D2D2D2D152490F89C32DBB233
:10391000032B03D0FFF7C9FB032524E0022201A9F2
:10392000FFF7ECFE35461EE090F89C32DBB2032B2D
:1039300003D0FFF7BAFB032515E001220DF10701C3
:10394000FFF7DCFE0FE090F89C32DBB2032B0AD0CD
:10395000FFF7ABFB032506E0FFF7A7FB032502E01B
:10396000FFF7A3FB0325284603B0F0BD0325FAE7C4
:1039700038B504468121FDF731FE00252587012158
:103980002046FDF72BFEA4F8785182212046FDF752
:1039900025FEA4F84C50A4F84E50D4F8BC324BB1DC
:1039A000D4F8C0325B689847D4F8BC02FDF7F8FD44
:1039B000C4F8BC52002038BD70B504464FF40770FF
:1039C000FDF7EAFDB8B30646C4F8BC02237CBBBBD6
:1039D0004FF40073022281212046FDF7F4FD0125FA
:1039E00025874FF40073022229462046FDF7EBFDA0
:1039F000A4F878511023A4F84E3008230322822122
:103A00002046FDF7E0FD0123A4F84C30D4F8C03285
:103A10001B6898470023C6F81432C6F81832257C74
:103A200015BB4FF40073D6F8042201212046FDF7A0
:103A3000FDFD284670BD0023C4F8BC320225F8E71E
:103A40004023022281212046FDF7BDFD0125258767
:103A50004023022229462046FDF7B5FDA4F87851FF
:103A60001023A4F84E30C8E74023D6F804220121E1
:103A70002046FDF7DBFD0025DBE719B1C0F8C012D9
:103A80000020704703207047D0F8BC322BB1C3F838
:103A90000812C3F810220020704703207047D0F8A6
:103AA000BC321BB1C3F804120020704703207047DA
:103AB000D0F8BC22A2B108B5D2F814320BB1012063
:103AC00008BD0123C2F81432D2F81032C362D2F812
:103AD0001032D2F808228121FDF7A0FD0020EFE787
:103AE0000320704710B5D0F8BC2292B1047C44B9D1
:103AF0004FF40073D2F804220121FDF797FD204610
:103B000010BD4023D2F804220121FDF78FFD0024CF
:103B1000F5E70324F3E70000DFF834D00D480E4941
:103B20000E4A002302E0D458C4500433C4188C4217
:103B3000F9D30B4A0B4C002301E013600432A2427C
:103B4000FBD3FDF711FB00F011F8FCF77BFD70478C
:103B50000000012000000020F80100207C45000842
:103B6000F80100203C150020FEE7000070B50D4D67
:103B70000D4C641BA4100026A64209D10B4D0C4C21
:103B800000F09CFC641BA4100026A64205D170BD69
:103B900055F8043B98470136EEE755F8043B984743
:103BA0000136F2E7744500087445000874450008C2
:103BB0007845000802440346934200D1704703F859
:103BC000011BF9E70EB400B59CB01DAB0290069046
:103BD0006FF00041094807910491094953F8042BFB
:103BE00005910068019302A900F068F8029B002289
:103BF0001A701CB05DF804EB03B07047940100200C
:103C00000802FFFF2DE9F0478E689E4282460C466F
:103C100090461F4638D88A8912F4906F32D02568B2
:103C20000969A5EB0109656905EB450505EBD57546
:103C300001334B446D109D4238BF1D46530531D5AD
:103C4000294600F063FB064650B90C23CAF8003041
:103C5000A38943F04003A3814FF0FF30BDE8F08714
:103C600021694A4600F0BEFAA38923F4906343F029
:103C70008003A381266165614E44A5EB090526609A
:103C8000A5603E46BE4200D93E46206832464146C7
:103C900000F0B6FAA3689B1BA3602368334423603B
:103CA0000020DBE72A4600F0A5FB06460028E1D10C
:103CB0002169504600F0BEFAC7E700002DE9F04F39
:103CC00098468B891B069DB007460D4614460ED5B7
:103CD0000B6963B9402100F019FB2860286120B905
:103CE0000C233B604FF0FF30D1E040236B61002399
:103CF000099320238DF82930CDF80C803023DFF88C
:103D0000A8818DF82A304FF0010923469A4613F80E
:103D1000012B0AB1252AF9D1BAEB040B0BD05B4673
:103D2000224629463846FFF76DFF013000F0AA8091
:103D3000099A5A4409929AF80030002B00F0A280A8
:103D400000234FF0FF32CDE905230AF1010A049365
:103D500007938DF853301A935446052214F8011B2B
:103D60005148FCF745FA049AD8B9D00644BF20233D
:103D70008DF85330110744BF2B238DF853309AF838
:103D800000302A2B15D0079A544600204FF00A0C19
:103D9000214611F8013B303B092B4ED9B0B10792B7
:103DA00014E0A0EB080309FA03F313430493A246BB
:103DB000D2E7039B191D1B680391002BBBBF5B421D
:103DC00042F0020207930793B8BF049223782E2B88
:103DD0000CD163782A2B35D1039B1A1D1B680392E3
:103DE000002BB8BF4FF0FF3302340593DFF8C8A0B3
:103DF000217803225046FCF7FBF940B14023A0EBA9
:103E00000A0003FA00F0049B03430134049314F8FE
:103E1000011B26488DF828100622FCF7E9F9002836
:103E200038D0234B1BBB039B073323F00703083316
:103E30000393099B3344099367E70CFB02320C465A
:103E40000120A5E700230134059319464FF00A0C21
:103E5000204610F8012B303A092A03D9002BC5D08F
:103E60000591C3E70CFB012104460123F0E703ABF6
:103E700000932A460F4B04A93846AFF30080421C3A
:103E80000646D6D1AB895B063FF52CAF09981DB02D
:103E9000BDE8F08F03AB00932A46064B04A93846D1
:103EA00000F07AF8EBE700BF36450008404500080F
:103EB00000000000053C00083C4500082DE9F047E3
:103EC000164699468A680B69DDF820809342B8BF90
:103ED0001346336091F8432007460C460AB101337C
:103EE00033602368990642BF336802333360256824
:103EF00015F0060506D104F1190AE36832689B1A29
:103F0000AB4226DC94F84320131E226818BF01231D
:103F100092062BD404F1430249463846C04701308B
:103F20001ED02368E568326803F00603042B08BF3F
:103F3000AD1AA36822690CBF25EAE57500259342F6
:103F4000C4BF9B1AED1800261A34B5421AD10020BE
:103F500008E00123524649463846C047013003D1A4
:103F60004FF0FF30BDE8F0870135C6E7E1185A1C75
:103F7000302081F84300224494F8451082F8431021
:103F80000233C7E70123224649463846C04701307D
:103F9000E6D00136D9E700002DE9FF470F7E0C9DE2
:103FA000782F914680460C469A4601F1430207D885
:103FB000622F0AD8002F00F0D880582F00F0A3807D
:103FC00004F1420584F842703AE0A7F16303152B2F
:103FD000F6D801A151F823F031400008454000080F
:103FE000C13F0008C13F0008C13F0008C13F0008B1
:103FF00045400008C13F0008C13F0008C13F00081C
:10400000C13F0008514100087540000833410008D5
:10401000C13F0008C13F000873410008C13F0008CC
:1040200075400008C13F0008C13F00083B4100083F
:104030002B681A1D1B682A6004F1420584F842307F
:104040000123A3E020682968060601F104030AD5CC
:104050000E682B60002E03DA2D23764284F843305D
:104060005E480A2319E00E682B6010F0400F18BF5D
:1040700036B2EFE72B682068191D2960010601D5CB
:104080001E6802E04606FBD51E8854486F2F0CBF01
:1040900008230A23002184F843106568A560002DD9
:1040A000A2BF216821F0040121600EB9002D4DD07E
:1040B0001546B6FBF3F103FB1167C75D05F8017DFB
:1040C0003746BB420E46F4D9082B0BD12368DE07D6
:1040D00008D5236961689942DEBF302305F8013CA9
:1040E00005F1FF35521B2261CDF800A04B4603AA13
:1040F00021464046FFF7E2FE01304CD14FF0FF3041
:1041000004B0BDE8F087354881F845702968236818
:1041100051F8046B29601D0614D5DF0744BF43F036
:10412000200323601EB9236823F02003236010239B
:10413000B0E7236843F0200323607823284884F8FD
:104140004530E3E7590648BFB6B2E6E71546BBE798
:104150002B6826686169181D286035061B6801D523
:10416000196002E07006FBD5198000232361154613
:10417000BAE72B681A1D2A601D686268002128466C
:10418000FCF736F808B1401B6060636823610023C8
:1041900084F84330A8E723692A4649464046D04779
:1041A0000130ABD023689B0713D4E068039B98428F
:1041B000B8BF1846A4E70123324649464046D047D7
:1041C00001309BD00135E36803995B1AAB42F2DC06
:1041D000EBE7002504F11906F5E700BF47450008A5
:1041E000584500080A44914200F1FF3300D170475E
:1041F00010B511F8014B03F8014F9142F9D110BDF0
:10420000884210B501EB020402D98442234607D844
:10421000431EA14208D011F8012B03F8012FF8E743
:10422000024401468A4200D110BD13F8014D02F844
:10423000014DF7E737B5002944D051F8043C01900F
:10424000002BA1F10404B8BFE41800F013F91E4AD2
:104250000198136833B96360146003B0BDE830405F
:1042600000F00EB9A34208D9256861198B4201BF3D
:1042700019685B6849192160EDE71A465B680BB164
:10428000A342FAD911685518A5420BD124682144DC
:104290005418A3421160E0D11C685B68536021444C
:1042A0001160DAE702D90C230360D6E725686119AB
:1042B0008B4204BF19685B68636004BF49192160C1
:1042C0005460CAE703B030BD2815002070B50E4E0B
:1042D0000C463168054611B900F0BCF83060214643
:1042E000284600F0B7F8431C0AD0C41C24F003048D
:1042F000A04207D0211A284600F0ACF8013001D1C5
:104300004FF0FF34204670BD2C1500202DE9F04100
:10431000CD1C25F0030508350C2D38BF0C25002DCC
:10432000074601DBA94205D90C233B600026304635
:10433000BDE8F0812E4E00F09DF833681C4634BB7A
:1043400029463846FFF7C2FF431C04464DD1346866
:104350002646002E40D123683146384604EB030838
:1043600000F078F880453AD1216803356D1A25F0C0
:10437000030508350C2D38BF0C2529463846FFF7B4
:10438000A5FF01302BD023682B4423600EE0226868
:10439000521B1ED40B2A16D96119A342256018BFDF
:1043A0005960636808BF316062514B60384604F160
:1043B0000B0600F065F826F00706231DF21AB6D0AA
:1043C0009B1BA350B3E76268A3420CBF32605A60E4
:1043D000ECE723466468B2E734467668B9E70C2315
:1043E0003B60384600F04CF8A1E72560DEE700BFEF
:1043F000281500202DE9F041804614460E4621B9CB
:10440000BDE8F0411146FFF781BF2AB9FFF712FF5F
:1044100025462846BDE8F08100F038F8844207467A
:1044200002D8B4EB500F12D821464046FFF76EFF7A
:1044300005460028EDD0BC422246314628BF3A4608
:10444000FFF7D0FE31464046FFF7F4FEE1E7354680
:10445000DFE7000038B5064D0023044608462B6010
:1044600000F01EF8431C02D12B6803B1236038BD55
:1044700030150020014800F011B800BF34150020AD
:10448000014800F00CB800BF3415002051F8043C7E
:10449000181F002BBCBF0B58C018704770477047DF
:1044A000044A05491368002B08BF0B4618441060E6
:1044B000184670473815002040150020F8B500BF99
:1044C000F8BC08BC9E467047F8B500BFF8BC08BCF5
:0444D0009E4670474D
:1044D400757074696D653A20256C64207365636F2B
:1044E4006E64730A00000000000000000000000079
:1044F400010203040607080953544D333300000036
:104504005A61696E734D6963726F656C6563747229
:104514006F6E69637300000043444320436F6E660B
:104524006967000043444320496E746572666163A1
:104534006500232D302B2000686C4C0065666745B0
:104544004647003031323334353637383941424307
:1045540044454600303132333435363738396162B8
:084564006364656600000000BD
:08456C0054BDFF7F01000000B7
:04457400C501000875
:04457800A101000895
:10457C00476F696E6720646F776E20666F7220726A
:10458C00657365740A000100100000000024F4003B
:10459C00D1110008DD110008A11200087D120008DD
:1045AC0069120008BD120008E11200081201000295
:1045BC0002020040ADDECDAB00020102030100009F
:1045CC00040309041A0300000000000000000000AE
:1045DC0000000000000000000000000000000000CF
:1045EC0041130008051300080913000811130008F3
:1045FC000D130008B9390008713900087D3800081E
:10460C00000000008137000813380008E937000863
:10461C00000000000000000000000000C53700088A
:10462C00B9370008D1370008DD370008090243000C
:10463C00020100C03209040000010202010005243D
:10464C0000100105240100010424020205240600C7
:10465C00010705820308001009040100020A00008A
:10466C000007050102400000070581024000000020
:10467C0009024300020100C03209040000010202D9
:10468C00010005240010010524010001042402028C
:10469C000524060001070582030800100904010027
:1046AC00020A000000070501020002000705810252
:1046BC00000200000A060002000000400100000099
:1046CC0009074300020104C0320904000001020280
:1046DC00010005240010010524010001042402023C
:1046EC0005240600010705820308001009040100D7
:1046FC00020A0000000705010240000007058102C4
:10470C0040000000980100200000000000000000A4
:10471C00000000000000000000000000000000008D
:10472C00000000000000000000000000000000007D
:10473C00000000000000000000000000000000006D
:10474C00000000000000000000000000000000005D
:10475C00000000000000000000000000000000004D
:08476C00000000000000000045
:0400000508003B199B
:00000001FF
